{
  "contractName": "Company",
  "abi": [
    {
      "constant": true,
      "inputs": [],
      "name": "getCity",
      "outputs": [
        {
          "name": "",
          "type": "bytes32"
        }
      ],
      "payable": false,
      "stateMutability": "view",
      "type": "function"
    },
    {
      "constant": false,
      "inputs": [
        {
          "name": "_dueDate",
          "type": "uint256"
        },
        {
          "name": "_invoiceId",
          "type": "uint256"
        },
        {
          "name": "_customer",
          "type": "address"
        },
        {
          "name": "_country",
          "type": "uint256"
        },
        {
          "name": "_amount",
          "type": "uint256"
        },
        {
          "name": "_currency",
          "type": "bytes3"
        },
        {
          "name": "_maxDiscount",
          "type": "uint256"
        }
      ],
      "name": "createInvoice",
      "outputs": [
        {
          "name": "",
          "type": "address"
        }
      ],
      "payable": false,
      "stateMutability": "nonpayable",
      "type": "function"
    },
    {
      "constant": true,
      "inputs": [],
      "name": "getRating",
      "outputs": [
        {
          "name": "",
          "type": "uint8"
        }
      ],
      "payable": false,
      "stateMutability": "view",
      "type": "function"
    },
    {
      "constant": true,
      "inputs": [],
      "name": "getVatNumber",
      "outputs": [
        {
          "name": "",
          "type": "bytes32"
        }
      ],
      "payable": false,
      "stateMutability": "view",
      "type": "function"
    },
    {
      "constant": true,
      "inputs": [],
      "name": "getName",
      "outputs": [
        {
          "name": "",
          "type": "bytes32"
        }
      ],
      "payable": false,
      "stateMutability": "view",
      "type": "function"
    },
    {
      "constant": true,
      "inputs": [
        {
          "name": "user",
          "type": "address"
        }
      ],
      "name": "isOwner",
      "outputs": [
        {
          "name": "",
          "type": "bool"
        }
      ],
      "payable": false,
      "stateMutability": "view",
      "type": "function"
    },
    {
      "constant": false,
      "inputs": [
        {
          "name": "businessNumber",
          "type": "bytes32"
        }
      ],
      "name": "setBusinessNumber",
      "outputs": [],
      "payable": false,
      "stateMutability": "nonpayable",
      "type": "function"
    },
    {
      "constant": false,
      "inputs": [],
      "name": "kill",
      "outputs": [],
      "payable": false,
      "stateMutability": "nonpayable",
      "type": "function"
    },
    {
      "constant": true,
      "inputs": [],
      "name": "getAddress2",
      "outputs": [
        {
          "name": "",
          "type": "bytes32"
        }
      ],
      "payable": false,
      "stateMutability": "view",
      "type": "function"
    },
    {
      "constant": true,
      "inputs": [],
      "name": "getBusinessNumber",
      "outputs": [
        {
          "name": "",
          "type": "bytes32"
        }
      ],
      "payable": false,
      "stateMutability": "view",
      "type": "function"
    },
    {
      "constant": false,
      "inputs": [
        {
          "name": "country",
          "type": "uint256"
        }
      ],
      "name": "setCountry",
      "outputs": [],
      "payable": false,
      "stateMutability": "nonpayable",
      "type": "function"
    },
    {
      "constant": false,
      "inputs": [
        {
          "name": "name",
          "type": "bytes32"
        }
      ],
      "name": "setName",
      "outputs": [],
      "payable": false,
      "stateMutability": "nonpayable",
      "type": "function"
    },
    {
      "constant": false,
      "inputs": [
        {
          "name": "city",
          "type": "bytes32"
        }
      ],
      "name": "setCity",
      "outputs": [],
      "payable": false,
      "stateMutability": "nonpayable",
      "type": "function"
    },
    {
      "constant": false,
      "inputs": [
        {
          "name": "postalCode",
          "type": "bytes32"
        }
      ],
      "name": "setPostalCode",
      "outputs": [],
      "payable": false,
      "stateMutability": "nonpayable",
      "type": "function"
    },
    {
      "constant": false,
      "inputs": [
        {
          "name": "vatNumber",
          "type": "bytes32"
        }
      ],
      "name": "setVatNumber",
      "outputs": [],
      "payable": false,
      "stateMutability": "nonpayable",
      "type": "function"
    },
    {
      "constant": false,
      "inputs": [
        {
          "name": "user",
          "type": "address"
        }
      ],
      "name": "revokeOwner",
      "outputs": [],
      "payable": false,
      "stateMutability": "nonpayable",
      "type": "function"
    },
    {
      "constant": false,
      "inputs": [
        {
          "name": "user",
          "type": "address"
        }
      ],
      "name": "addOwner",
      "outputs": [],
      "payable": false,
      "stateMutability": "nonpayable",
      "type": "function"
    },
    {
      "constant": true,
      "inputs": [],
      "name": "getAddress1",
      "outputs": [
        {
          "name": "",
          "type": "bytes32"
        }
      ],
      "payable": false,
      "stateMutability": "view",
      "type": "function"
    },
    {
      "constant": true,
      "inputs": [],
      "name": "getCountry",
      "outputs": [
        {
          "name": "",
          "type": "uint256"
        }
      ],
      "payable": false,
      "stateMutability": "view",
      "type": "function"
    },
    {
      "constant": false,
      "inputs": [
        {
          "name": "address1",
          "type": "bytes32"
        }
      ],
      "name": "setAddress1",
      "outputs": [],
      "payable": false,
      "stateMutability": "nonpayable",
      "type": "function"
    },
    {
      "constant": false,
      "inputs": [
        {
          "name": "address2",
          "type": "bytes32"
        }
      ],
      "name": "setAddress2",
      "outputs": [],
      "payable": false,
      "stateMutability": "nonpayable",
      "type": "function"
    },
    {
      "constant": true,
      "inputs": [],
      "name": "listOwners",
      "outputs": [
        {
          "name": "",
          "type": "address[]"
        }
      ],
      "payable": false,
      "stateMutability": "view",
      "type": "function"
    },
    {
      "constant": true,
      "inputs": [],
      "name": "getPostalCode",
      "outputs": [
        {
          "name": "",
          "type": "bytes32"
        }
      ],
      "payable": false,
      "stateMutability": "view",
      "type": "function"
    },
    {
      "inputs": [
        {
          "name": "owner",
          "type": "address"
        },
        {
          "name": "hiveProjectPOC",
          "type": "address"
        },
        {
          "name": "country",
          "type": "uint256"
        },
        {
          "name": "name",
          "type": "bytes32"
        },
        {
          "name": "address1",
          "type": "bytes32"
        },
        {
          "name": "address2",
          "type": "bytes32"
        },
        {
          "name": "city",
          "type": "bytes32"
        },
        {
          "name": "postalCode",
          "type": "bytes32"
        },
        {
          "name": "vatNumber",
          "type": "bytes32"
        },
        {
          "name": "businessNumber",
          "type": "bytes32"
        }
      ],
      "payable": false,
      "stateMutability": "nonpayable",
      "type": "constructor"
    }
  ],
  "bytecode": "0x6060604052341561000f57600080fd5b60405161014080611e0783398101604052808051919060200180519190602001805191906020018051919060200180519190602001805191906020018051919060200180519190602001805191906020018051600160a060020a038c166000908152600960205260409020805460ff19166001908117909155600a80549294509250810161009d83826100fc565b50600091825260208220018054600160a060020a0319908116600160a060020a039d8e161790915581541699909a1698909817909855600195909555600293909355600391909155600455600555600655600791909155600855610146565b81548183558181151161012057600083815260209020610120918101908301610125565b505050565b61014391905b8082111561013f576000815560010161012b565b5090565b90565b611cb2806101556000396000f30060606040523615620001485763ffffffff7c01000000000000000000000000000000000000000000000000000000006000350416630379915d81146200014d578063045c78ca146200017557806305cf8d5d14620001e55780630f67ecc9146200021157806317d7de7c14620002275780632f54bf6e146200023d57806330bf4673146200027357806341c0e1b5146200028e578063420cec3a14620002a457806343d7b48514620002ba57806349d3dc4714620002d05780635ac801fe14620002e95780635b1f80ef146200030257806362a21636146200031b57806363afecd414620003345780636d151101146200034d5780637065cb48146200036f5780639102198414620003915780639e0c3ead14620003a7578063b00a2ead14620003bd578063da4a00f514620003d6578063ed60c0fc14620003ef578063ef71e789146200045a575b600080fd5b34156200015957600080fd5b6200016362000470565b60405190815260200160405180910390f35b34156200018157600080fd5b620001c9600435602435600160a060020a03604435166064356084357cffffffffffffffffffffffffffffffffffffffffffffffffffffffffff1960a4351660c43562000477565b604051600160a060020a03909116815260200160405180910390f35b3415620001f157600080fd5b620001fb620005d1565b60405160ff909116815260200160405180910390f35b34156200021d57600080fd5b62000163620005d6565b34156200023357600080fd5b62000163620005dc565b34156200024957600080fd5b6200025f600160a060020a0360043516620005e2565b604051901515815260200160405180910390f35b34156200027f57600080fd5b6200028c60043562000600565b005b34156200029a57600080fd5b6200028c6200061c565b3415620002b057600080fd5b620001636200063f565b3415620002c657600080fd5b6200016362000645565b3415620002dc57600080fd5b6200028c6004356200064b565b3415620002f557600080fd5b6200028c60043562000667565b34156200030e57600080fd5b6200028c60043562000683565b34156200032757600080fd5b6200028c6004356200069f565b34156200034057600080fd5b6200028c600435620006bb565b34156200035957600080fd5b6200028c600160a060020a0360043516620006d7565b34156200037b57600080fd5b6200028c600160a060020a036004351662000796565b34156200039d57600080fd5b6200016362000820565b3415620003b357600080fd5b6200016362000826565b3415620003c957600080fd5b6200028c6004356200082c565b3415620003e257600080fd5b6200028c60043562000848565b3415620003fb57600080fd5b6200040562000864565b60405160208082528190810183818151815260200191508051906020019060200280838360005b83811015620004465780820151838201526020016200042c565b505050509050019250505060405180910390f35b34156200046657600080fd5b62000163620008cf565b6005545b90565b60008060006200048733620005e2565b15156200049357600080fd5b6000548a908a9030908b908b908b908b908b90600160a060020a0316620004b9620009b8565b9889526020890197909752600160a060020a039586166040808a01919091529486166060890152608088019390935260a08701919091527cffffffffffffffffffffffffffffffffffffffffffffffffffffffffff191660c086015260e085015291166101008301526101209091019051809103906000f08015156200053e57600080fd5b600054909250600160a060020a03169050806377f24335836040517c010000000000000000000000000000000000000000000000000000000063ffffffff8416028152600160a060020a039091166004820152602401600060405180830381600087803b1515620005ae57600080fd5b6102c65a03f11515620005c057600080fd5b50929b9a5050505050505050505050565b606290565b60075490565b60025490565b600160a060020a031660009081526009602052604090205460ff1690565b6200060b33620005e2565b15156200061757600080fd5b600855565b6200062733620005e2565b15156200063357600080fd5b33600160a060020a0316ff5b60045490565b60085490565b6200065633620005e2565b15156200066257600080fd5b600155565b6200067233620005e2565b15156200067e57600080fd5b600255565b6200068e33620005e2565b15156200069a57600080fd5b600555565b620006aa33620005e2565b1515620006b657600080fd5b600655565b620006c633620005e2565b1515620006d257600080fd5b600755565b620006e233620005e2565b1515620006ee57600080fd5b600160a060020a038116600090815260096020908152604091829020805460ff19169055600a80546200077d939192909182820290910190519081016040528092919081815260200182805480156200077157602002820191906000526020600020905b8154600160a060020a0316815260019091019060200180831162000752575b505050505082620008d5565b600a90805162000792929160200190620009c9565b5050565b620007a133620005e2565b1515620007ad57600080fd5b600160a060020a0381166000908152600960205260409020805460ff19166001908117909155600a805490918101620007e7838262000a42565b506000918252602090912001805473ffffffffffffffffffffffffffffffffffffffff1916600160a060020a0392909216919091179055565b60035490565b60015490565b6200083733620005e2565b15156200084357600080fd5b600355565b6200085333620005e2565b15156200085f57600080fd5b600455565b6200086e62000a6e565b600a8054602080820201604051908101604052809291908181526020018280548015620008c557602002820191906000526020600020905b8154600160a060020a03168152600190910190602001808311620008a6575b5050505050905090565b60065490565b620008df62000a6e565b620008e962000a6e565b6000806001865103604051805910620008ff5750595b9080825280602002602001820160405250925060009150600090505b8551811015620009a35784600160a060020a03168682815181106200093c57fe5b90602001906020020151600160a060020a0316146200099a578581815181106200096257fe5b90602001906020020151838360ff16815181106200097c57fe5b600160a060020a039092166020928302909101909101526001909101905b6001016200091b565b620009ad62000a6e565b509195945050505050565b6040516111b58062000ad283390190565b82805482825590600052602060002090810192821562000a30579160200282015b8281111562000a30578251825473ffffffffffffffffffffffffffffffffffffffff1916600160a060020a039190911617825560209290920191600190910190620009ea565b5062000a3e92915062000a80565b5090565b81548183558181151162000a695760008381526020902062000a6991810190830162000ab4565b505050565b60206040519081016040526000815290565b6200047491905b8082111562000a3e57805473ffffffffffffffffffffffffffffffffffffffff1916815560010162000a87565b6200047491905b8082111562000a3e576000815560010162000abb56006060604052341561000f57600080fd5b604051610120806111b583398101604052808051919060200180519190602001805191906020018051919060200180519190602001805191906020018051919060200180519190602001805160018054600160a060020a031916600160a060020a038b16178155600280549294509250810161008b838261013e565b50600091825260208220018054600160a060020a0319908116600160a060020a039a8b169081179092554260035560049b909b55600599909955600780548b16909917909855600880548a1696881696909617909555600693909355600a91909155600b805462ffffff19167d010000000000000000000000000000000000000000000000000000000000909204919091179055600c556011805460ff1916905582549093169216919091179055610188565b81548183558181151161016257600083815260209020610162918101908301610167565b505050565b61018591905b80821115610181576000815560010161016d565b5090565b90565b61101e806101976000396000f300606060405236156101ca5763ffffffff7c01000000000000000000000000000000000000000000000000000000006000350416630ecf461881146101cf5780630f0bca3e146101f65780631865c57d1461020a57806320005531146102335780632707eec0146102525780633263e78b1461027757806345b278fb1461029c57806349d3dc47146102af57806352556421146102c557806360ceb818146102f4578063650d993b146103135780636945c1fd1461032657806371e7baaf1461036c5780637e78fdb91461037f578063893d20e8146103925780639a38330d146103a55780639e0c3ead146103ca5780639ea5e9fc146103dd578063a50c92ea146103fc578063a79a3cee1461041e578063b49f3a7714610445578063c6095a4d14610467578063c6be71cc1461048c578063cbf0b0c0146104ab578063d2fafb19146104ca578063d321fe29146104ec578063d32b97f6146104ff578063d4fc7cd914610541578063d7263b0714610554578063dc71ebe614610573578063de30c3b814610595578063e3150568146105a8578063eb571b98146105c7578063eb8f4871146105e9578063ed60c0fc1461060b578063f00d4b5d14610671578063f41f8dcb14610696575b600080fd5b34156101da57600080fd5b6101f4600160a060020a03600435166024356044356106a9565b005b6101f4600160a060020a0360043516610709565b341561021557600080fd5b61021d61083a565b60405160ff909116815260200160405180910390f35b341561023e57600080fd5b6101f4600160a060020a0360043516610844565b341561025d57600080fd5b6101f4600160a060020a0360043581169060243516610888565b341561028257600080fd5b61028a6108e2565b60405190815260200160405180910390f35b34156102a757600080fd5b61028a6108e8565b34156102ba57600080fd5b6101f46004356108ee565b34156102d057600080fd5b6102d86108f3565b604051600160a060020a03909116815260200160405180910390f35b34156102ff57600080fd5b61028a600160a060020a0360043516610902565b341561031e57600080fd5b6102d8610920565b341561033157600080fd5b61033961092f565b6040517cffffffffffffffffffffffffffffffffffffffffffffffffffffffffff19909116815260200160405180910390f35b341561037757600080fd5b61028a610955565b341561038a57600080fd5b6102d861095b565b341561039d57600080fd5b6102d861096a565b34156103b057600080fd5b6101f4600160a060020a0360043581169060243516610979565b34156103d557600080fd5b61028a6109d3565b34156103e857600080fd5b61028a600160a060020a03600435166109d9565b341561040757600080fd5b6101f4600160a060020a03600435166024356109f7565b341561042957600080fd5b610431610a34565b604051901515815260200160405180910390f35b341561045057600080fd5b6101f4600160a060020a0360043516602435610a42565b341561047257600080fd5b6101f4600160a060020a0360043581169060243516610a7f565b341561049757600080fd5b61028a600160a060020a0360043516610ad9565b34156104b657600080fd5b6101f4600160a060020a0360043516610af7565b34156104d557600080fd5b6101f4600160a060020a0360043516602435610b39565b34156104f757600080fd5b61028a610b76565b341561050a57600080fd5b6101f4600160a060020a03600435167cffffffffffffffffffffffffffffffffffffffffffffffffffffffffff1960243516610b7c565b341561054c57600080fd5b61028a610be8565b341561055f57600080fd5b6101f4600160a060020a0360043516610bee565b341561057e57600080fd5b6101f4600160a060020a0360043516602435610c37565b34156105a057600080fd5b61028a610c74565b34156105b357600080fd5b61028a600160a060020a0360043516610c7a565b34156105d257600080fd5b6101f4600160a060020a0360043516602435610c98565b34156105f457600080fd5b6101f4600160a060020a0360043516602435610cd5565b341561061657600080fd5b61061e610d12565b60405160208082528190810183818151815260200191508051906020019060200280838360005b8381101561065d578082015183820152602001610645565b505050509050019250505060405180910390f35b341561067c57600080fd5b6101f4600160a060020a0360043581169060243516610d79565b34156106a157600080fd5b61028a610e20565b6001548390600160a060020a03808316911614806106d45750600154600160a060020a038281169116145b15156106df57600080fd5b60115460ff16600214156106ef57fe5b506011805460ff19166001179055600d9190915560105550565b6000610713610f5a565b600454151561072157600080fd5b6107296108e8565b915081151561073757600080fd5b600154600160a060020a039081168252600d54604083015242606083015260105460a0830152600854848216911614156107ca57600154600a5461078a918391600160a060020a03909116908690610e26565b610792610edc565b7f7af325d48818750f963839bd931e6a1023dd2ed672f2425c863d490424bb0dcf4260405190815260200160405180910390a1610835565b6001546107e3908290600160a060020a03168585610e26565b7f7cdbc5118455b1bee54bc176b9c1fa976b1614cf68ee9b5b61a3775a77431f3681518484604051600160a060020a039384168152919092166020820152604080820192909252606001905180910390a15b505050565b60115460ff165b90565b6001548190600160a060020a038083169116148061086f5750600154600160a060020a038281169116145b151561087a57600080fd5b50506011805460ff19169055565b6001548290600160a060020a03808316911614806108b35750600154600160a060020a038281169116145b15156108be57600080fd5b5060088054600160a060020a031916600160a060020a039290921691909117905550565b60055490565b60105490565b600655565b600754600160a060020a031690565b600160a060020a031660009081526012602052604090206002015490565b600854600160a060020a031690565b600b547d0100000000000000000000000000000000000000000000000000000000000290565b600c5490565b600954600160a060020a031690565b600154600160a060020a031690565b6001548290600160a060020a03808316911614806109a45750600154600160a060020a038281169116145b15156109af57600080fd5b5060078054600160a060020a031916600160a060020a039290921691909117905550565b60065490565b600160a060020a031660009081526012602052604090206003015490565b6001548290600160a060020a0380831691161480610a225750600154600160a060020a038281169116145b1515610a2d57600080fd5b5060105550565b601154610100900460ff1690565b6001548290600160a060020a0380831691161480610a6d5750600154600160a060020a038281169116145b1515610a7857600080fd5b5060035550565b6001548290600160a060020a0380831691161480610aaa5750600154600160a060020a038281169116145b1515610ab557600080fd5b5060098054600160a060020a031916600160a060020a039290921691909117905550565b600160a060020a031660009081526012602052604090206004015490565b6001548190600160a060020a0380831691161480610b225750600154600160a060020a038281169116145b1515610b2d57600080fd5b81600160a060020a0316ff5b6001548290600160a060020a0380831691161480610b645750600154600160a060020a038281169116145b1515610b6f57600080fd5b50600a5550565b600a5490565b6001548290600160a060020a0380831691161480610ba75750600154600160a060020a038281169116145b1515610bb257600080fd5b50600b805462ffffff19167d01000000000000000000000000000000000000000000000000000000000090920491909117905550565b60035490565b6008548190600160a060020a0380831691161480610c195750600854600160a060020a038281169116145b1515610c2457600080fd5b50506011805461ff001916610100179055565b6001548290600160a060020a0380831691161480610c625750600154600160a060020a038281169116145b1515610c6d57600080fd5b5060055550565b60045490565b600160a060020a031660009081526012602052604090206005015490565b6001548290600160a060020a0380831691161480610cc35750600154600160a060020a038281169116145b1515610cce57600080fd5b50600c5550565b6001548290600160a060020a0380831691161480610d005750600154600160a060020a038281169116145b1515610d0b57600080fd5b5060045550565b610d1a610fa3565b60028054602080820201604051908101604052809291908181526020018280548015610d6f57602002820191906000526020600020905b8154600160a060020a03168152600190910190602001808311610d51575b5050505050905090565b6001548290600160a060020a0380831691161480610da45750600154600160a060020a038281169116145b1515610daf57600080fd5b600154600160a060020a03838116911614610dfc576002805460018101610dd68382610fb5565b5060009182526020909120018054600160a060020a031916600160a060020a0384161790555b5060018054600160a060020a031916600160a060020a039290921691909117905550565b600d5490565b600160a060020a038216602085015260808401819052610e4583610844565b600160a060020a0383166000908152601260205260409020849081518154600160a060020a031916600160a060020a03919091161781556020820151600182018054600160a060020a031916600160a060020a039290921691909117905560408201518160020155606082015181600301556080820151816004015560a082015160059091015550610ed682610eeb565b50505050565b6011805460ff19166002179055565b600154600160a060020a03828116911614610f38576002805460018101610f128382610fb5565b5060009182526020909120018054600160a060020a031916600160a060020a0383161790555b60018054600160a060020a031916600160a060020a0392909216919091179055565b60c0604051908101604052806000600160a060020a031681526020016000600160a060020a03168152602001600081526020016000815260200160008152602001600081525090565b60206040519081016040526000815290565b8154818355818115116108355760008381526020902061083591810190830161084191905b80821115610fee5760008155600101610fda565b50905600a165627a7a7230582048de3381fd830fb5d6a1a5db2dd8290d5ba22c84e7f7176397bdb73d34848ae50029a165627a7a72305820fce9539260dde6d0d62f1a19ddec72c0df801b1c6843124a42e35fe145bbb7730029",
  "source": "/*\n * Company\n * \n * Copyright © 2017 by Hive Project Ltd.\n *\n * Licensed under the Apache License, Version 2.0 (the \"License\").\n * You may not use this file except in compliance with the License.\n *\n * Unless required by applicable law or agreed to in writing, software\n * distributed under the License is distributed on an \"AS IS\" BASIS,\n * WITHOUT WARRANTIES OR CONDITIONS OF ANY KIND (express or implied).\n */\n\npragma solidity ^0.4.15;\n\nimport \"./Invoice.sol\";\nimport \"../HiveMvp.sol\";\nimport \"../helper/Operations.sol\";\n\ncontract Company is Operations {\n    \n    struct CompanyStruct {\n        address hiveProjectPOC;\n\n        // Info\n        uint country;\n        bytes32 name;\n        bytes32 address1;\n        bytes32 address2;\n        bytes32 city;\n        bytes32 postalCode;\n        bytes32 vatNumber;\n        bytes32 businessNumber;\n\n        // Security\n        mapping (address => bool) users;\n        address[] usersList;\n\n        // Rating\n        uint8 rating;\n    }\n\n    CompanyStruct company;\n\n    // Constructor\n    function Company(address owner, address hiveProjectPOC, uint country, bytes32 name, bytes32 address1, bytes32 address2, bytes32 city, bytes32 postalCode, bytes32 vatNumber, bytes32 businessNumber) public {\n        company.users[owner] = true;\n        company.usersList.push(owner);\n        company.hiveProjectPOC = hiveProjectPOC;\n        company.country = country;\n        company.name = name;\n        company.address1 = address1;\n        company.address2 = address2;\n        company.city = city;\n        company.postalCode = postalCode;\n        company.vatNumber = vatNumber;\n        company.businessNumber = businessNumber;\n    }\n\n    /* Modifiers */\n    modifier onlyOwner() {\n        require(isOwner(msg.sender));\n        _;\n    }\n\n    /* Security */\n    // Setters\n    // Add new owner to Company\n    function addOwner(address user) public onlyOwner {\n        company.users[user] = true;\n        company.usersList.push(user);\n    }\n\n    // Remove existing owner from Company\n    function revokeOwner(address user) public onlyOwner {\n        company.users[user] = false;\n        company.usersList = removeItem(company.usersList, user);\n    }\n\n    // Getters\n    // Check if address is owner\n    function isOwner(address user) public constant returns (bool) {\n        return company.users[user];\n    }\n\n    // List all Company owners\n    function listOwners() public constant returns(address[]) {\n        return company.usersList;\n    }\n\n    // Invoices\n    // Create new Invoice for company\n    function createInvoice(uint _dueDate, uint _invoiceId, address _customer, uint _country, uint _amount, bytes3 _currency, uint _maxDiscount) public onlyOwner returns (address) {\n        address invoice = new Invoice(_dueDate, _invoiceId, address(this), _customer, _country, _amount, _currency, _maxDiscount, company.hiveProjectPOC);\n\n        HiveProjectPOC hive = HiveProjectPOC(company.hiveProjectPOC);\n        hive.addInvoice(invoice);\n        return invoice;\n    }\n\n    // Rating\n    // Getters\n    function getRating() public constant returns (uint8) {\n        return 98;\n    }\n\n    /* Setters */\n    // sets user country\n    function setCountry(uint country) public onlyOwner {\n        company.country = country;\n    }\n\n    // sets user name\n    function setName(bytes32 name) public onlyOwner {\n        company.name = name;\n    }\n\n    // sets user address1\n    function setAddress1(bytes32 address1) public onlyOwner {\n        company.address1 = address1;\n    }\n\n    // sets user address2\n    function setAddress2(bytes32 address2) public onlyOwner {\n        company.address2 = address2;\n    }\n\n    // sets user city\n    function setCity(bytes32 city) public onlyOwner {\n        company.city = city;\n    }\n\n    // sets user postalCode\n    function setPostalCode(bytes32 postalCode) public onlyOwner {\n        company.postalCode = postalCode;\n    }\n\n    // sets user vatNumber\n    function setVatNumber(bytes32 vatNumber) public onlyOwner {\n        company.vatNumber = vatNumber;\n    }\n\n    // sets user businessNumber\n    function setBusinessNumber(bytes32 businessNumber) public onlyOwner {\n        company.businessNumber = businessNumber;\n    }\n\n    /* Getters */\n    // returns user country\n    function getCountry() public constant returns (uint) {\n        return company.country;\n    }\n\n    // returns user name\n    function getName() public constant returns (bytes32) {\n        return company.name;\n    }\n\n    // returns user address1\n    function getAddress1() public constant returns (bytes32) {\n        return company.address1;\n    }\n\n    // returns user address2\n    function getAddress2() public constant returns (bytes32) {\n        return company.address2;\n    }\n\n    // returns user city\n    function getCity() public constant returns (bytes32) {\n        return company.city;\n    }\n\n    // returns user postalCode\n    function getPostalCode() public constant returns (bytes32) {\n        return company.postalCode;\n    }\n\n    // returns user vatNumber\n    function getVatNumber() public constant returns (bytes32) {\n        return company.vatNumber;\n    }\n\n    // returns user businessNumber\n    function getBusinessNumber() public constant returns (bytes32) {\n        return company.businessNumber;\n    }\n\n    /** @dev  kill the contract functionality\n     */\n    function kill() public onlyOwner {\n        selfdestruct(msg.sender);\n    }\n}\n",
  "sourcePath": "/Users/dimitarjelev/Projects/ethereum/hive-poc/smartContracts/contracts/object/Company.sol",
  "schemaVersion": "1.0.0",
  "updatedAt": "2017-10-26T11:41:48.455Z"
}