{
  "contractName": "Investor",
  "abi": [
    {
      "constant": true,
      "inputs": [],
      "name": "getCity",
      "outputs": [
        {
          "name": "",
          "type": "bytes32"
        }
      ],
      "payable": false,
      "stateMutability": "view",
      "type": "function"
    },
    {
      "constant": true,
      "inputs": [],
      "name": "getName",
      "outputs": [
        {
          "name": "",
          "type": "bytes32"
        }
      ],
      "payable": false,
      "stateMutability": "view",
      "type": "function"
    },
    {
      "constant": true,
      "inputs": [
        {
          "name": "user",
          "type": "address"
        }
      ],
      "name": "isOwner",
      "outputs": [
        {
          "name": "",
          "type": "bool"
        }
      ],
      "payable": false,
      "stateMutability": "view",
      "type": "function"
    },
    {
      "constant": false,
      "inputs": [],
      "name": "kill",
      "outputs": [],
      "payable": false,
      "stateMutability": "nonpayable",
      "type": "function"
    },
    {
      "constant": true,
      "inputs": [],
      "name": "getAddress2",
      "outputs": [
        {
          "name": "",
          "type": "bytes32"
        }
      ],
      "payable": false,
      "stateMutability": "view",
      "type": "function"
    },
    {
      "constant": false,
      "inputs": [
        {
          "name": "country",
          "type": "uint256"
        }
      ],
      "name": "setCountry",
      "outputs": [],
      "payable": false,
      "stateMutability": "nonpayable",
      "type": "function"
    },
    {
      "constant": false,
      "inputs": [
        {
          "name": "name",
          "type": "bytes32"
        }
      ],
      "name": "setName",
      "outputs": [],
      "payable": false,
      "stateMutability": "nonpayable",
      "type": "function"
    },
    {
      "constant": false,
      "inputs": [
        {
          "name": "city",
          "type": "bytes32"
        }
      ],
      "name": "setCity",
      "outputs": [],
      "payable": false,
      "stateMutability": "nonpayable",
      "type": "function"
    },
    {
      "constant": false,
      "inputs": [
        {
          "name": "postalCode",
          "type": "bytes32"
        }
      ],
      "name": "setPostalCode",
      "outputs": [],
      "payable": false,
      "stateMutability": "nonpayable",
      "type": "function"
    },
    {
      "constant": false,
      "inputs": [
        {
          "name": "user",
          "type": "address"
        }
      ],
      "name": "revokeOwner",
      "outputs": [],
      "payable": false,
      "stateMutability": "nonpayable",
      "type": "function"
    },
    {
      "constant": false,
      "inputs": [
        {
          "name": "user",
          "type": "address"
        }
      ],
      "name": "addOwner",
      "outputs": [],
      "payable": false,
      "stateMutability": "nonpayable",
      "type": "function"
    },
    {
      "constant": true,
      "inputs": [],
      "name": "getAddress1",
      "outputs": [
        {
          "name": "",
          "type": "bytes32"
        }
      ],
      "payable": false,
      "stateMutability": "view",
      "type": "function"
    },
    {
      "constant": true,
      "inputs": [],
      "name": "getCountry",
      "outputs": [
        {
          "name": "",
          "type": "uint256"
        }
      ],
      "payable": false,
      "stateMutability": "view",
      "type": "function"
    },
    {
      "constant": false,
      "inputs": [
        {
          "name": "address1",
          "type": "bytes32"
        }
      ],
      "name": "setAddress1",
      "outputs": [],
      "payable": false,
      "stateMutability": "nonpayable",
      "type": "function"
    },
    {
      "constant": false,
      "inputs": [
        {
          "name": "address2",
          "type": "bytes32"
        }
      ],
      "name": "setAddress2",
      "outputs": [],
      "payable": false,
      "stateMutability": "nonpayable",
      "type": "function"
    },
    {
      "constant": true,
      "inputs": [],
      "name": "listOwners",
      "outputs": [
        {
          "name": "",
          "type": "address[]"
        }
      ],
      "payable": false,
      "stateMutability": "view",
      "type": "function"
    },
    {
      "constant": true,
      "inputs": [],
      "name": "getPostalCode",
      "outputs": [
        {
          "name": "",
          "type": "bytes32"
        }
      ],
      "payable": false,
      "stateMutability": "view",
      "type": "function"
    },
    {
      "inputs": [
        {
          "name": "owner",
          "type": "address"
        },
        {
          "name": "hiveProjectPOC",
          "type": "address"
        },
        {
          "name": "country",
          "type": "uint256"
        },
        {
          "name": "name",
          "type": "bytes32"
        },
        {
          "name": "address1",
          "type": "bytes32"
        },
        {
          "name": "address2",
          "type": "bytes32"
        },
        {
          "name": "city",
          "type": "bytes32"
        },
        {
          "name": "postalCode",
          "type": "bytes32"
        }
      ],
      "payable": false,
      "stateMutability": "nonpayable",
      "type": "constructor"
    }
  ],
  "bytecode": "0x6060604052341561000f57600080fd5b604051610100806108bc8339810160405280805191906020018051919060200180519190602001805191906020018051919060200180519190602001805191906020018051600160a060020a038a166000908152600760205260409020805460ff19166001908117909155600880549294509250810161008f83826100e5565b50600091825260208220018054600160a060020a0319908116600160a060020a039b8c1617909155815416979098169690961790965560019390935560029190915560035560045560059190915560065561012f565b8154818355818115116101095760008381526020902061010991810190830161010e565b505050565b61012c91905b808211156101285760008155600101610114565b5090565b90565b61077e8061013e6000396000f300606060405236156100ee5763ffffffff7c01000000000000000000000000000000000000000000000000000000006000350416630379915d81146100f357806317d7de7c146101185780632f54bf6e1461012b57806341c0e1b51461015e578063420cec3a1461017357806349d3dc47146101865780635ac801fe1461019c5780635b1f80ef146101b257806362a21636146101c85780636d151101146101de5780637065cb48146101fd578063910219841461021c5780639e0c3ead1461022f578063b00a2ead14610242578063da4a00f514610258578063ed60c0fc1461026e578063ef71e789146102d4575b600080fd5b34156100fe57600080fd5b6101066102e7565b60405190815260200160405180910390f35b341561012357600080fd5b6101066102ee565b341561013657600080fd5b61014a600160a060020a03600435166102f4565b604051901515815260200160405180910390f35b341561016957600080fd5b610171610312565b005b341561017e57600080fd5b610106610332565b341561019157600080fd5b610171600435610338565b34156101a757600080fd5b610171600435610351565b34156101bd57600080fd5b61017160043561036a565b34156101d357600080fd5b610171600435610383565b34156101e957600080fd5b610171600160a060020a036004351661039c565b341561020857600080fd5b610171600160a060020a0360043516610452565b341561022757600080fd5b6101066104d7565b341561023a57600080fd5b6101066104dd565b341561024d57600080fd5b6101716004356104e3565b341561026357600080fd5b6101716004356104fc565b341561027957600080fd5b610281610515565b60405160208082528190810183818151815260200191508051906020019060200280838360005b838110156102c05780820151838201526020016102a8565b505050509050019250505060405180910390f35b34156102df57600080fd5b61010661057c565b6005545b90565b60025490565b600160a060020a031660009081526007602052604090205460ff1690565b61031b336102f4565b151561032657600080fd5b33600160a060020a0316ff5b60045490565b610341336102f4565b151561034c57600080fd5b600155565b61035a336102f4565b151561036557600080fd5b600255565b610373336102f4565b151561037e57600080fd5b600555565b61038c336102f4565b151561039757600080fd5b600655565b6103a5336102f4565b15156103b057600080fd5b600160a060020a038116600090815260076020908152604091829020805460ff191690556008805461043b9391929091828202909101905190810160405280929190818152602001828054801561043057602002820191906000526020600020905b8154600160a060020a03168152600190910190602001808311610412575b505050505082610582565b600890805161044e929160200190610658565b5050565b61045b336102f4565b151561046657600080fd5b600160a060020a0381166000908152600760205260409020805460ff19166001908117909155600880549091810161049e83826106cc565b506000918252602090912001805473ffffffffffffffffffffffffffffffffffffffff1916600160a060020a0392909216919091179055565b60035490565b60015490565b6104ec336102f4565b15156104f757600080fd5b600355565b610505336102f4565b151561051057600080fd5b600455565b61051d6106f5565b6008805460208082020160405190810160405280929190818152602001828054801561057257602002820191906000526020600020905b8154600160a060020a03168152600190910190602001808311610554575b5050505050905090565b60065490565b61058a6106f5565b6105926106f5565b60008060018651036040518059106105a75750595b9080825280602002602001820160405250925060009150600090505b85518110156106455784600160a060020a03168682815181106105e257fe5b90602001906020020151600160a060020a03161461063d5785818151811061060657fe5b90602001906020020151838360ff168151811061061f57fe5b600160a060020a039092166020928302909101909101526001909101905b6001016105c3565b61064d6106f5565b509195945050505050565b8280548282559060005260206000209081019282156106bc579160200282015b828111156106bc578251825473ffffffffffffffffffffffffffffffffffffffff1916600160a060020a039190911617825560209290920191600190910190610678565b506106c8929150610707565b5090565b8154818355818115116106f0576000838152602090206106f0918101908301610738565b505050565b60206040519081016040526000815290565b6102eb91905b808211156106c857805473ffffffffffffffffffffffffffffffffffffffff1916815560010161070d565b6102eb91905b808211156106c8576000815560010161073e5600a165627a7a72305820e68704525619b00247c69e72fa59c2d48bd4216f78524439d666882ddcc70d960029",
  "source": "/*\n * Investor\n * \n * Copyright © 2017 by Hive Project Ltd.\n *\n * Licensed under the Apache License, Version 2.0 (the \"License\").\n * You may not use this file except in compliance with the License.\n *\n * Unless required by applicable law or agreed to in writing, software\n * distributed under the License is distributed on an \"AS IS\" BASIS,\n * WITHOUT WARRANTIES OR CONDITIONS OF ANY KIND (express or implied).\n */\n\npragma solidity ^0.4.15;\n\nimport \"../object/Invoice.sol\";\nimport \"../HiveMvp.sol\";\nimport \"../helper/Operations.sol\";\n\ncontract Investor is Operations {\n    \n    struct InvestorStruct {\n        address hiveProjectPOC;\n\n        // Info\n        uint country;\n        bytes32 name;\n        bytes32 address1;\n        bytes32 address2;\n        bytes32 city;\n        bytes32 postalCode;\n\n        // Security\n        mapping (address => bool) users;\n        address[] usersList;\n    }\n\n    InvestorStruct investor;\n\n    // Constructor\n    function Investor(address owner, address hiveProjectPOC, uint country, bytes32 name, bytes32 address1, bytes32 address2, bytes32 city, bytes32 postalCode) public {\n        investor.users[owner] = true;\n        investor.usersList.push(owner);\n        investor.hiveProjectPOC = hiveProjectPOC;\n        investor.country = country;\n        investor.name = name;\n        investor.address1 = address1;\n        investor.address2 = address2;\n        investor.city = city;\n        investor.postalCode = postalCode;\n    }\n\n    // /* Modifiers */\n    modifier onlyOwner() {\n        require(isOwner(msg.sender));\n        _;\n    }\n\n    /* Security */\n    // Setters\n    // Add new owner to Company\n    function addOwner(address user) public onlyOwner {\n        investor.users[user] = true;\n        investor.usersList.push(user);\n    }\n\n    // Remove existing owner from Company\n    function revokeOwner(address user) public onlyOwner {\n        investor.users[user] = false;\n        investor.usersList = removeItem(investor.usersList, user);\n    }\n\n    // Getters\n    // Check if address is owner\n    function isOwner(address user) public constant returns (bool) {\n        return investor.users[user];\n    }\n\n    // List all Company owners\n    function listOwners() public constant returns(address[]) {\n        return investor.usersList;\n    }\n\n    /* Setters */\n    // sets investor country\n    function setCountry(uint country) public onlyOwner {\n        investor.country = country;\n    }\n\n    // sets investor name\n    function setName(bytes32 name) public onlyOwner {\n        investor.name = name;\n    }\n\n    // sets investor address1\n    function setAddress1(bytes32 address1) public onlyOwner {\n        investor.address1 = address1;\n    }\n\n    // sets investor address2\n    function setAddress2(bytes32 address2) public onlyOwner {\n        investor.address2 = address2;\n    }\n\n    // sets investor city\n    function setCity(bytes32 city) public onlyOwner {\n        investor.city = city;\n    }\n\n    // sets investor postalCode\n    function setPostalCode(bytes32 postalCode) public onlyOwner {\n        investor.postalCode = postalCode;\n    }\n\n    /* Getters */\n    // returns investor country\n    function getCountry() public constant returns (uint) {\n        return investor.country;\n    }\n\n    // returns investor name\n    function getName() public constant returns (bytes32) {\n        return investor.name;\n    }\n\n    // returns investor address1\n    function getAddress1() public constant returns (bytes32) {\n        return investor.address1;\n    }\n\n    // returns investor address2\n    function getAddress2() public constant returns (bytes32) {\n        return investor.address2;\n    }\n\n    // returns investor city\n    function getCity() public constant returns (bytes32) {\n        return investor.city;\n    }\n\n    // returns investor postalCode\n    function getPostalCode() public constant returns (bytes32) {\n        return investor.postalCode;\n    }\n\n    /** @dev  kill the contract functionality\n     */\n    function kill() public onlyOwner {\n        selfdestruct(msg.sender);\n    }\n}\n",
  "sourcePath": "/Users/dimitarjelev/Projects/ethereum/hive-poc/smartContracts/contracts/object/Investor.sol",
  "schemaVersion": "1.0.0",
  "updatedAt": "2017-10-26T11:41:48.448Z"
}