{
  "contractName": "Invoice",
  "abi": [
    {
      "constant": false,
      "inputs": [
        {
          "name": "owner",
          "type": "address"
        },
        {
          "name": "offerExpiryDate",
          "type": "uint256"
        },
        {
          "name": "takeOverAmount",
          "type": "uint256"
        }
      ],
      "name": "markAsOnSale",
      "outputs": [],
      "payable": false,
      "stateMutability": "nonpayable",
      "type": "function"
    },
    {
      "constant": false,
      "inputs": [
        {
          "name": "buyer",
          "type": "address"
        }
      ],
      "name": "buyInvoice",
      "outputs": [],
      "payable": true,
      "stateMutability": "payable",
      "type": "function"
    },
    {
      "constant": true,
      "inputs": [],
      "name": "getState",
      "outputs": [
        {
          "name": "",
          "type": "uint8"
        }
      ],
      "payable": false,
      "stateMutability": "view",
      "type": "function"
    },
    {
      "constant": false,
      "inputs": [
        {
          "name": "owner",
          "type": "address"
        }
      ],
      "name": "markAsPending",
      "outputs": [],
      "payable": false,
      "stateMutability": "nonpayable",
      "type": "function"
    },
    {
      "constant": false,
      "inputs": [
        {
          "name": "owner",
          "type": "address"
        },
        {
          "name": "customer",
          "type": "address"
        }
      ],
      "name": "setCustomer",
      "outputs": [],
      "payable": false,
      "stateMutability": "nonpayable",
      "type": "function"
    },
    {
      "constant": true,
      "inputs": [],
      "name": "getInvoiceId",
      "outputs": [
        {
          "name": "",
          "type": "uint256"
        }
      ],
      "payable": false,
      "stateMutability": "view",
      "type": "function"
    },
    {
      "constant": true,
      "inputs": [],
      "name": "getTakeOverPrice",
      "outputs": [
        {
          "name": "",
          "type": "uint256"
        }
      ],
      "payable": false,
      "stateMutability": "view",
      "type": "function"
    },
    {
      "constant": false,
      "inputs": [
        {
          "name": "country",
          "type": "uint256"
        }
      ],
      "name": "setCountry",
      "outputs": [],
      "payable": false,
      "stateMutability": "nonpayable",
      "type": "function"
    },
    {
      "constant": true,
      "inputs": [],
      "name": "getIssuer",
      "outputs": [
        {
          "name": "",
          "type": "address"
        }
      ],
      "payable": false,
      "stateMutability": "view",
      "type": "function"
    },
    {
      "constant": true,
      "inputs": [
        {
          "name": "_company",
          "type": "address"
        }
      ],
      "name": "getOfferExpiresDateHistory",
      "outputs": [
        {
          "name": "",
          "type": "uint256"
        }
      ],
      "payable": false,
      "stateMutability": "view",
      "type": "function"
    },
    {
      "constant": true,
      "inputs": [],
      "name": "getCustomer",
      "outputs": [
        {
          "name": "",
          "type": "address"
        }
      ],
      "payable": false,
      "stateMutability": "view",
      "type": "function"
    },
    {
      "constant": true,
      "inputs": [],
      "name": "getCurrency",
      "outputs": [
        {
          "name": "",
          "type": "bytes3"
        }
      ],
      "payable": false,
      "stateMutability": "view",
      "type": "function"
    },
    {
      "constant": true,
      "inputs": [],
      "name": "getMaxDiscount",
      "outputs": [
        {
          "name": "",
          "type": "uint256"
        }
      ],
      "payable": false,
      "stateMutability": "view",
      "type": "function"
    },
    {
      "constant": true,
      "inputs": [],
      "name": "getDebtor",
      "outputs": [
        {
          "name": "",
          "type": "address"
        }
      ],
      "payable": false,
      "stateMutability": "view",
      "type": "function"
    },
    {
      "constant": true,
      "inputs": [],
      "name": "getOwner",
      "outputs": [
        {
          "name": "",
          "type": "address"
        }
      ],
      "payable": false,
      "stateMutability": "view",
      "type": "function"
    },
    {
      "constant": false,
      "inputs": [
        {
          "name": "owner",
          "type": "address"
        },
        {
          "name": "issuer",
          "type": "address"
        }
      ],
      "name": "setIssuer",
      "outputs": [],
      "payable": false,
      "stateMutability": "nonpayable",
      "type": "function"
    },
    {
      "constant": true,
      "inputs": [],
      "name": "getCountry",
      "outputs": [
        {
          "name": "",
          "type": "uint256"
        }
      ],
      "payable": false,
      "stateMutability": "view",
      "type": "function"
    },
    {
      "constant": true,
      "inputs": [
        {
          "name": "_company",
          "type": "address"
        }
      ],
      "name": "getPayedOnDateHistory",
      "outputs": [
        {
          "name": "",
          "type": "uint256"
        }
      ],
      "payable": false,
      "stateMutability": "view",
      "type": "function"
    },
    {
      "constant": false,
      "inputs": [
        {
          "name": "owner",
          "type": "address"
        },
        {
          "name": "takeOverAmount",
          "type": "uint256"
        }
      ],
      "name": "setTakeOverPrice",
      "outputs": [],
      "payable": false,
      "stateMutability": "nonpayable",
      "type": "function"
    },
    {
      "constant": true,
      "inputs": [],
      "name": "isConfirmed",
      "outputs": [
        {
          "name": "",
          "type": "bool"
        }
      ],
      "payable": false,
      "stateMutability": "view",
      "type": "function"
    },
    {
      "constant": false,
      "inputs": [
        {
          "name": "owner",
          "type": "address"
        },
        {
          "name": "issueDate",
          "type": "uint256"
        }
      ],
      "name": "setIssueDate",
      "outputs": [],
      "payable": false,
      "stateMutability": "nonpayable",
      "type": "function"
    },
    {
      "constant": false,
      "inputs": [
        {
          "name": "owner",
          "type": "address"
        },
        {
          "name": "debtor",
          "type": "address"
        }
      ],
      "name": "setDebtor",
      "outputs": [],
      "payable": false,
      "stateMutability": "nonpayable",
      "type": "function"
    },
    {
      "constant": true,
      "inputs": [
        {
          "name": "_company",
          "type": "address"
        }
      ],
      "name": "getCostHistory",
      "outputs": [
        {
          "name": "",
          "type": "uint256"
        }
      ],
      "payable": false,
      "stateMutability": "view",
      "type": "function"
    },
    {
      "constant": false,
      "inputs": [
        {
          "name": "owner",
          "type": "address"
        }
      ],
      "name": "kill",
      "outputs": [],
      "payable": false,
      "stateMutability": "nonpayable",
      "type": "function"
    },
    {
      "constant": false,
      "inputs": [
        {
          "name": "owner",
          "type": "address"
        },
        {
          "name": "amount",
          "type": "uint256"
        }
      ],
      "name": "setAmount",
      "outputs": [],
      "payable": false,
      "stateMutability": "nonpayable",
      "type": "function"
    },
    {
      "constant": true,
      "inputs": [],
      "name": "getAmount",
      "outputs": [
        {
          "name": "",
          "type": "uint256"
        }
      ],
      "payable": false,
      "stateMutability": "view",
      "type": "function"
    },
    {
      "constant": false,
      "inputs": [
        {
          "name": "owner",
          "type": "address"
        },
        {
          "name": "currency",
          "type": "bytes3"
        }
      ],
      "name": "setCurrency",
      "outputs": [],
      "payable": false,
      "stateMutability": "nonpayable",
      "type": "function"
    },
    {
      "constant": true,
      "inputs": [],
      "name": "getIssueDate",
      "outputs": [
        {
          "name": "",
          "type": "uint256"
        }
      ],
      "payable": false,
      "stateMutability": "view",
      "type": "function"
    },
    {
      "constant": false,
      "inputs": [
        {
          "name": "payer",
          "type": "address"
        }
      ],
      "name": "markAsConfirmed",
      "outputs": [],
      "payable": false,
      "stateMutability": "nonpayable",
      "type": "function"
    },
    {
      "constant": false,
      "inputs": [
        {
          "name": "owner",
          "type": "address"
        },
        {
          "name": "invoiceId",
          "type": "uint256"
        }
      ],
      "name": "setInvoiceId",
      "outputs": [],
      "payable": false,
      "stateMutability": "nonpayable",
      "type": "function"
    },
    {
      "constant": true,
      "inputs": [],
      "name": "getDueDate",
      "outputs": [
        {
          "name": "",
          "type": "uint256"
        }
      ],
      "payable": false,
      "stateMutability": "view",
      "type": "function"
    },
    {
      "constant": true,
      "inputs": [
        {
          "name": "_company",
          "type": "address"
        }
      ],
      "name": "getTakeOverPriceHistory",
      "outputs": [
        {
          "name": "",
          "type": "uint256"
        }
      ],
      "payable": false,
      "stateMutability": "view",
      "type": "function"
    },
    {
      "constant": false,
      "inputs": [
        {
          "name": "owner",
          "type": "address"
        },
        {
          "name": "maxDiscount",
          "type": "uint256"
        }
      ],
      "name": "setMaxDiscount",
      "outputs": [],
      "payable": false,
      "stateMutability": "nonpayable",
      "type": "function"
    },
    {
      "constant": false,
      "inputs": [
        {
          "name": "owner",
          "type": "address"
        },
        {
          "name": "dueDate",
          "type": "uint256"
        }
      ],
      "name": "setDueDate",
      "outputs": [],
      "payable": false,
      "stateMutability": "nonpayable",
      "type": "function"
    },
    {
      "constant": true,
      "inputs": [],
      "name": "listOwners",
      "outputs": [
        {
          "name": "",
          "type": "address[]"
        }
      ],
      "payable": false,
      "stateMutability": "view",
      "type": "function"
    },
    {
      "constant": false,
      "inputs": [
        {
          "name": "owner",
          "type": "address"
        },
        {
          "name": "newOwner",
          "type": "address"
        }
      ],
      "name": "changeOwner",
      "outputs": [],
      "payable": false,
      "stateMutability": "nonpayable",
      "type": "function"
    },
    {
      "constant": true,
      "inputs": [],
      "name": "getOfferExpiresDate",
      "outputs": [
        {
          "name": "",
          "type": "uint256"
        }
      ],
      "payable": false,
      "stateMutability": "view",
      "type": "function"
    },
    {
      "inputs": [
        {
          "name": "_dueDate",
          "type": "uint256"
        },
        {
          "name": "_invoiceId",
          "type": "uint256"
        },
        {
          "name": "_issuer",
          "type": "address"
        },
        {
          "name": "_customer",
          "type": "address"
        },
        {
          "name": "_country",
          "type": "uint256"
        },
        {
          "name": "_amount",
          "type": "uint256"
        },
        {
          "name": "currency",
          "type": "bytes3"
        },
        {
          "name": "_maxDiscount",
          "type": "uint256"
        },
        {
          "name": "hiveProjectPOC",
          "type": "address"
        }
      ],
      "payable": false,
      "stateMutability": "nonpayable",
      "type": "constructor"
    },
    {
      "anonymous": false,
      "inputs": [
        {
          "indexed": false,
          "name": "_from",
          "type": "address"
        },
        {
          "indexed": false,
          "name": "_to",
          "type": "address"
        },
        {
          "indexed": false,
          "name": "_amountPaid",
          "type": "uint256"
        }
      ],
      "name": "InvoiceOwnershipChanged",
      "type": "event"
    },
    {
      "anonymous": false,
      "inputs": [
        {
          "indexed": false,
          "name": "blockNumber",
          "type": "uint256"
        }
      ],
      "name": "InvoiceClosed",
      "type": "event"
    }
  ],
  "bytecode": "0x6060604052341561000f57600080fd5b604051610120806111b583398101604052808051919060200180519190602001805191906020018051919060200180519190602001805191906020018051919060200180519190602001805160018054600160a060020a031916600160a060020a038b16178155600280549294509250810161008b838261013e565b50600091825260208220018054600160a060020a0319908116600160a060020a039a8b169081179092554260035560049b909b55600599909955600780548b16909917909855600880548a1696881696909617909555600693909355600a91909155600b805462ffffff19167d010000000000000000000000000000000000000000000000000000000000909204919091179055600c556011805460ff1916905582549093169216919091179055610188565b81548183558181151161016257600083815260209020610162918101908301610167565b505050565b61018591905b80821115610181576000815560010161016d565b5090565b90565b61101e806101976000396000f300606060405236156101ca5763ffffffff7c01000000000000000000000000000000000000000000000000000000006000350416630ecf461881146101cf5780630f0bca3e146101f65780631865c57d1461020a57806320005531146102335780632707eec0146102525780633263e78b1461027757806345b278fb1461029c57806349d3dc47146102af57806352556421146102c557806360ceb818146102f4578063650d993b146103135780636945c1fd1461032657806371e7baaf1461036c5780637e78fdb91461037f578063893d20e8146103925780639a38330d146103a55780639e0c3ead146103ca5780639ea5e9fc146103dd578063a50c92ea146103fc578063a79a3cee1461041e578063b49f3a7714610445578063c6095a4d14610467578063c6be71cc1461048c578063cbf0b0c0146104ab578063d2fafb19146104ca578063d321fe29146104ec578063d32b97f6146104ff578063d4fc7cd914610541578063d7263b0714610554578063dc71ebe614610573578063de30c3b814610595578063e3150568146105a8578063eb571b98146105c7578063eb8f4871146105e9578063ed60c0fc1461060b578063f00d4b5d14610671578063f41f8dcb14610696575b600080fd5b34156101da57600080fd5b6101f4600160a060020a03600435166024356044356106a9565b005b6101f4600160a060020a0360043516610709565b341561021557600080fd5b61021d61083a565b60405160ff909116815260200160405180910390f35b341561023e57600080fd5b6101f4600160a060020a0360043516610844565b341561025d57600080fd5b6101f4600160a060020a0360043581169060243516610888565b341561028257600080fd5b61028a6108e2565b60405190815260200160405180910390f35b34156102a757600080fd5b61028a6108e8565b34156102ba57600080fd5b6101f46004356108ee565b34156102d057600080fd5b6102d86108f3565b604051600160a060020a03909116815260200160405180910390f35b34156102ff57600080fd5b61028a600160a060020a0360043516610902565b341561031e57600080fd5b6102d8610920565b341561033157600080fd5b61033961092f565b6040517cffffffffffffffffffffffffffffffffffffffffffffffffffffffffff19909116815260200160405180910390f35b341561037757600080fd5b61028a610955565b341561038a57600080fd5b6102d861095b565b341561039d57600080fd5b6102d861096a565b34156103b057600080fd5b6101f4600160a060020a0360043581169060243516610979565b34156103d557600080fd5b61028a6109d3565b34156103e857600080fd5b61028a600160a060020a03600435166109d9565b341561040757600080fd5b6101f4600160a060020a03600435166024356109f7565b341561042957600080fd5b610431610a34565b604051901515815260200160405180910390f35b341561045057600080fd5b6101f4600160a060020a0360043516602435610a42565b341561047257600080fd5b6101f4600160a060020a0360043581169060243516610a7f565b341561049757600080fd5b61028a600160a060020a0360043516610ad9565b34156104b657600080fd5b6101f4600160a060020a0360043516610af7565b34156104d557600080fd5b6101f4600160a060020a0360043516602435610b39565b34156104f757600080fd5b61028a610b76565b341561050a57600080fd5b6101f4600160a060020a03600435167cffffffffffffffffffffffffffffffffffffffffffffffffffffffffff1960243516610b7c565b341561054c57600080fd5b61028a610be8565b341561055f57600080fd5b6101f4600160a060020a0360043516610bee565b341561057e57600080fd5b6101f4600160a060020a0360043516602435610c37565b34156105a057600080fd5b61028a610c74565b34156105b357600080fd5b61028a600160a060020a0360043516610c7a565b34156105d257600080fd5b6101f4600160a060020a0360043516602435610c98565b34156105f457600080fd5b6101f4600160a060020a0360043516602435610cd5565b341561061657600080fd5b61061e610d12565b60405160208082528190810183818151815260200191508051906020019060200280838360005b8381101561065d578082015183820152602001610645565b505050509050019250505060405180910390f35b341561067c57600080fd5b6101f4600160a060020a0360043581169060243516610d79565b34156106a157600080fd5b61028a610e20565b6001548390600160a060020a03808316911614806106d45750600154600160a060020a038281169116145b15156106df57600080fd5b60115460ff16600214156106ef57fe5b506011805460ff19166001179055600d9190915560105550565b6000610713610f5a565b600454151561072157600080fd5b6107296108e8565b915081151561073757600080fd5b600154600160a060020a039081168252600d54604083015242606083015260105460a0830152600854848216911614156107ca57600154600a5461078a918391600160a060020a03909116908690610e26565b610792610edc565b7f7af325d48818750f963839bd931e6a1023dd2ed672f2425c863d490424bb0dcf4260405190815260200160405180910390a1610835565b6001546107e3908290600160a060020a03168585610e26565b7f7cdbc5118455b1bee54bc176b9c1fa976b1614cf68ee9b5b61a3775a77431f3681518484604051600160a060020a039384168152919092166020820152604080820192909252606001905180910390a15b505050565b60115460ff165b90565b6001548190600160a060020a038083169116148061086f5750600154600160a060020a038281169116145b151561087a57600080fd5b50506011805460ff19169055565b6001548290600160a060020a03808316911614806108b35750600154600160a060020a038281169116145b15156108be57600080fd5b5060088054600160a060020a031916600160a060020a039290921691909117905550565b60055490565b60105490565b600655565b600754600160a060020a031690565b600160a060020a031660009081526012602052604090206002015490565b600854600160a060020a031690565b600b547d0100000000000000000000000000000000000000000000000000000000000290565b600c5490565b600954600160a060020a031690565b600154600160a060020a031690565b6001548290600160a060020a03808316911614806109a45750600154600160a060020a038281169116145b15156109af57600080fd5b5060078054600160a060020a031916600160a060020a039290921691909117905550565b60065490565b600160a060020a031660009081526012602052604090206003015490565b6001548290600160a060020a0380831691161480610a225750600154600160a060020a038281169116145b1515610a2d57600080fd5b5060105550565b601154610100900460ff1690565b6001548290600160a060020a0380831691161480610a6d5750600154600160a060020a038281169116145b1515610a7857600080fd5b5060035550565b6001548290600160a060020a0380831691161480610aaa5750600154600160a060020a038281169116145b1515610ab557600080fd5b5060098054600160a060020a031916600160a060020a039290921691909117905550565b600160a060020a031660009081526012602052604090206004015490565b6001548190600160a060020a0380831691161480610b225750600154600160a060020a038281169116145b1515610b2d57600080fd5b81600160a060020a0316ff5b6001548290600160a060020a0380831691161480610b645750600154600160a060020a038281169116145b1515610b6f57600080fd5b50600a5550565b600a5490565b6001548290600160a060020a0380831691161480610ba75750600154600160a060020a038281169116145b1515610bb257600080fd5b50600b805462ffffff19167d01000000000000000000000000000000000000000000000000000000000090920491909117905550565b60035490565b6008548190600160a060020a0380831691161480610c195750600854600160a060020a038281169116145b1515610c2457600080fd5b50506011805461ff001916610100179055565b6001548290600160a060020a0380831691161480610c625750600154600160a060020a038281169116145b1515610c6d57600080fd5b5060055550565b60045490565b600160a060020a031660009081526012602052604090206005015490565b6001548290600160a060020a0380831691161480610cc35750600154600160a060020a038281169116145b1515610cce57600080fd5b50600c5550565b6001548290600160a060020a0380831691161480610d005750600154600160a060020a038281169116145b1515610d0b57600080fd5b5060045550565b610d1a610fa3565b60028054602080820201604051908101604052809291908181526020018280548015610d6f57602002820191906000526020600020905b8154600160a060020a03168152600190910190602001808311610d51575b5050505050905090565b6001548290600160a060020a0380831691161480610da45750600154600160a060020a038281169116145b1515610daf57600080fd5b600154600160a060020a03838116911614610dfc576002805460018101610dd68382610fb5565b5060009182526020909120018054600160a060020a031916600160a060020a0384161790555b5060018054600160a060020a031916600160a060020a039290921691909117905550565b600d5490565b600160a060020a038216602085015260808401819052610e4583610844565b600160a060020a0383166000908152601260205260409020849081518154600160a060020a031916600160a060020a03919091161781556020820151600182018054600160a060020a031916600160a060020a039290921691909117905560408201518160020155606082015181600301556080820151816004015560a082015160059091015550610ed682610eeb565b50505050565b6011805460ff19166002179055565b600154600160a060020a03828116911614610f38576002805460018101610f128382610fb5565b5060009182526020909120018054600160a060020a031916600160a060020a0383161790555b60018054600160a060020a031916600160a060020a0392909216919091179055565b60c0604051908101604052806000600160a060020a031681526020016000600160a060020a03168152602001600081526020016000815260200160008152602001600081525090565b60206040519081016040526000815290565b8154818355818115116108355760008381526020902061083591810190830161084191905b80821115610fee5760008155600101610fda565b50905600a165627a7a7230582048de3381fd830fb5d6a1a5db2dd8290d5ba22c84e7f7176397bdb73d34848ae50029",
  "source": "/*\n * Invoice POCO\n * \n * Copyright © 2017 by Hive Project Ltd.\n *\n * Licensed under the Apache License, Version 2.0 (the \"License\").\n * You may not use this file except in compliance with the License.\n *\n * Unless required by applicable law or agreed to in writing, software\n * distributed under the License is distributed on an \"AS IS\" BASIS,\n * WITHOUT WARRANTIES OR CONDITIONS OF ANY KIND (express or implied).\n */\n\npragma solidity ^0.4.15;\n\nimport \"../HiveMvp.sol\";\nimport \"../lib/SafeMathLib.sol\";\nimport \"./Company.sol\";\nimport \"./Investor.sol\";\n\ncontract Invoice {\n    using SafeMathLib for uint;\n\n    struct SettlementStruct {\n        address seller;\n        address payer;\n        uint256 offerExiresDate;\n        uint256 payedOnDate;\n        uint256 cost;\n        uint256 takeOverAmount;\n    }\n\n    struct InvoiceStruct {\n        address hiveProjectPOC;\n\n        // Security\n        address owner; // company\n        address[] owners;\n\n        // Base info\n        uint256 issueDate;\n        uint256 dueDate;\n        uint256 invoiceId;\n        uint country;\n\n        // Companies \n        address issuer; // seller\n        address customer; // payer\n        address debtor; // investor\n\n        // Value\n        uint256 amount;\n        bytes3 currency;\n        uint256 maxDiscount;\n\n        uint256 offerExiresDate;\n        uint256 payedOnDate;\n        uint256 cost;\n        uint256 takeOverAmount;\n\n        /*\n         * State:\n         * 0 - Pending\n         * 1 - OnSale\n         * 2 - Settled\n        */\n        uint8 state;\n        bool confirmed;   \n\n        mapping (address => SettlementStruct) settlements;\n    }\n\n    function Invoice(uint256 _dueDate, uint256 _invoiceId, address _issuer, address _customer, uint _country, uint _amount, bytes3 currency, uint _maxDiscount, address hiveProjectPOC) public {\n        invoice.owner = _issuer;\n        invoice.owners.push(_issuer);\n        invoice.issueDate = now;\n        invoice.dueDate = _dueDate;\n        invoice.invoiceId = _invoiceId;\n        invoice.issuer = _issuer;\n        invoice.customer = _customer;\n        invoice.country = _country;\n        invoice.amount = _amount;\n        invoice.currency = currency;\n        invoice.maxDiscount = _maxDiscount;\n        invoice.state = 0;\n\n        invoice.hiveProjectPOC = hiveProjectPOC;\n    }\n\n    InvoiceStruct invoice;\n    \n    // Events\n    event InvoiceOwnershipChanged(address _from, address _to, uint _amountPaid);\n    event InvoiceClosed(uint blockNumber);\n\n    // Actions\n    function buyInvoice(address buyer) public payable {\n        require(invoice.dueDate != 0);\n        \n        uint256 amountForTransfer = getTakeOverPrice();\n        require(amountForTransfer != 0);\n        \n        SettlementStruct memory settlement;\n        settlement.seller = invoice.owner;\n        \n        settlement.offerExiresDate = invoice.offerExiresDate;\n        settlement.payedOnDate = now;\n        settlement.takeOverAmount = invoice.takeOverAmount;\n\n        if (buyer == invoice.customer) {\n            buyInvoiceHelper(settlement, invoice.owner, buyer, invoice.amount);\n            // Mark as payed/settled\n            markAsSettled();\n            InvoiceClosed(now);  \n        } else {\n            buyInvoiceHelper(settlement, invoice.owner, buyer, amountForTransfer);\n\n            InvoiceOwnershipChanged(settlement.seller, buyer, amountForTransfer);\n        }\n    }\n\n    function buyInvoiceHelper(SettlementStruct settlement, address seller, address payer, uint256 amount) private {\n        // Set settlement payer\n        settlement.payer = payer;\n        settlement.cost = amount;\n\n        // Mark invoice as pending\n        markAsPending(seller);\n        \n        // Add settlement information\n        invoice.settlements[seller] = settlement;\n\n        // Change owner\n        changeOwner(payer);\n    }\n\n    /* Base info */\n    // Setters\n    function setIssueDate(address owner, uint256 issueDate) public onlyOwner(owner) {\n        invoice.issueDate = issueDate;\n    }\n\n    function setDueDate(address owner, uint256 dueDate) public onlyOwner(owner) {\n        invoice.dueDate = dueDate;\n    }\n    \n    function setInvoiceId(address owner, uint256 invoiceId) public onlyOwner(owner) {\n        invoice.invoiceId = invoiceId;\n    }\n\n    function setCountry(uint country) public {\n        invoice.country = country;\n    }\n\n    // Getters\n    function getIssueDate() public constant returns (uint256) {\n        return invoice.issueDate;\n    }\n\n    function getDueDate() public constant returns (uint256) {\n        return invoice.dueDate;\n    }\n\n    function getInvoiceId() public constant returns (uint256) {\n        return invoice.invoiceId;\n    }\n\n    function getCountry() public constant returns (uint) {\n        return invoice.country;\n    }\n    \n    /* Users */ \n    // Setters \n    function setIssuer(address owner, address issuer) public onlyOwner(owner) {\n        invoice.issuer = issuer;\n    }\n\n    function setCustomer(address owner, address customer) public onlyOwner(owner) {\n        invoice.customer = customer;\n    }\n\n    function setDebtor(address owner, address debtor) public onlyOwner(owner) {\n        invoice.debtor = debtor;\n    }\n\n    // Getters \n    function getIssuer() public constant returns (address) {\n        return invoice.issuer;\n    }\n\n    function getCustomer() public constant returns (address) {\n        return invoice.customer;\n    }\n\n    function getDebtor() public constant returns (address) {\n        return invoice.debtor;\n    }\n\n    /* Values */\n    // Setters\n    function setAmount(address owner, uint256 amount) public onlyOwner(owner) {\n        invoice.amount = amount;\n    }\n\n    function setCurrency(address owner, bytes3 currency) public onlyOwner(owner) {\n        invoice.currency = currency;\n    }\n\n    function setMaxDiscount(address owner, uint256 maxDiscount) public onlyOwner(owner) {\n        invoice.maxDiscount = maxDiscount;\n    }\n\n    function setTakeOverPrice(address owner, uint256 takeOverAmount) public onlyOwner(owner) {\n        invoice.takeOverAmount = takeOverAmount;\n    }\n\n    // Getters\n    function getAmount() public constant returns (uint256) {\n        return invoice.amount;\n    }\n    \n    function getCurrency() public constant returns (bytes3) {\n        return invoice.currency;\n    }\n\n    function getMaxDiscount() public constant returns (uint256) {\n        return invoice.maxDiscount;\n    }\n\n    function getOfferExpiresDate() public constant returns (uint256) {\n        return invoice.offerExiresDate;\n    }\n\n    function getTakeOverPrice() public constant returns (uint256) {\n        return invoice.takeOverAmount;\n    }\n\n    function getOfferExpiresDateHistory(address _company) public constant returns (uint256) {\n        return invoice.settlements[_company].offerExiresDate;\n    }\n\n    function getTakeOverPriceHistory(address _company) public constant returns (uint256) {\n        return invoice.settlements[_company].takeOverAmount;\n    }\n\n    function getPayedOnDateHistory(address _company) public constant returns (uint256) {\n        return invoice.settlements[_company].payedOnDate;\n    }\n\n    function getCostHistory(address _company) public constant returns (uint256) {\n        return invoice.settlements[_company].cost;\n    }\n    /* Invoice state */\n    // Setters\n    // Mark invoice as pending\n    function markAsPending(address owner) public onlyOwner(owner) {\n        invoice.state = 0;\n    }\n\n    // Mark invoice for sale\n    function markAsOnSale(address owner, uint256 offerExpiryDate, uint256 takeOverAmount) public onlyOwner(owner) notSettled {\n        invoice.state = 1;\n        invoice.offerExiresDate = offerExpiryDate;\n        invoice.takeOverAmount = takeOverAmount;\n    }\n\n    // Mark invoice as payed/settled\n    function markAsSettled() private {\n        invoice.state = 2;\n    }\n\n    // Confirm invoice\n    function markAsConfirmed(address payer) public onlyPayer(payer) {\n        invoice.confirmed = true;\n    }\n    \n    // Getters\n    // Get current invoice state\n    function getState() public constant returns (uint8) {\n        return invoice.state;\n    }\n\n    // Check if invoice is confirmed\n    function isConfirmed() public constant returns (bool) {\n        return invoice.confirmed;\n    }\n\n    /* Security */\n    // Change invoice owner\n    function changeOwner(address owner, address newOwner) public onlyOwner(owner) {\n        if (invoice.owner != newOwner) {\n            invoice.owners.push(newOwner);\n        }\n        invoice.owner = newOwner;\n    }\n\n    function changeOwner(address newOwner) private {\n        if (invoice.owner != newOwner) {\n            invoice.owners.push(newOwner);\n        }\n        invoice.owner = newOwner;\n    }\n\n    // Getters\n    // Get current invoice owner\n    function getOwner() public constant returns (address) {\n        return invoice.owner;\n    }\n\n    // List all history of invoice owners\n    function listOwners() public constant returns (address[]) {\n        return invoice.owners;\n    }\n\n    /* Modifiers */\n    \n    modifier notSettled() {\n        assert(invoice.state != 2);\n        _;\n    }\n\n    modifier settled() {\n        assert(invoice.state == 2);\n        _;\n    }\n\n    modifier notConfirmed() {\n        assert(!invoice.confirmed);\n        _;\n    }\n\n    modifier confirmed() {\n        assert(invoice.confirmed);\n        _;\n    }\n\n    modifier onlyPayer(address payer) {\n        require(payer == invoice.customer || payer == invoice.customer);\n        _;\n    }\n\n    modifier onlyOwner(address owner) {\n        require(owner == invoice.owner || owner == invoice.owner);\n        _;\n    }\n    \n    /** @dev  kill the contract functionality\n     */\n    function kill(address owner) public onlyOwner(owner) {\n        selfdestruct(owner);\n    }\n}\n",
  "sourcePath": "/Users/dimitarjelev/Projects/ethereum/hive-poc/smartContracts/contracts/object/Invoice.sol",
  "schemaVersion": "1.0.0",
  "updatedAt": "2017-10-26T11:41:49.828Z"
}