{
  "contractName": "SafeMathLib",
  "abi": [
    {
      "constant": true,
      "inputs": [
        {
          "name": "a",
          "type": "uint256"
        },
        {
          "name": "b",
          "type": "uint256"
        }
      ],
      "name": "times",
      "outputs": [
        {
          "name": "",
          "type": "uint256"
        }
      ],
      "payable": false,
      "stateMutability": "view",
      "type": "function"
    },
    {
      "constant": true,
      "inputs": [
        {
          "name": "a",
          "type": "uint256"
        },
        {
          "name": "b",
          "type": "uint256"
        }
      ],
      "name": "plus",
      "outputs": [
        {
          "name": "",
          "type": "uint256"
        }
      ],
      "payable": false,
      "stateMutability": "view",
      "type": "function"
    },
    {
      "constant": true,
      "inputs": [
        {
          "name": "a",
          "type": "uint256"
        },
        {
          "name": "b",
          "type": "uint256"
        }
      ],
      "name": "minus",
      "outputs": [
        {
          "name": "",
          "type": "uint256"
        }
      ],
      "payable": false,
      "stateMutability": "view",
      "type": "function"
    }
  ],
  "bytecode": "0x6060604052341561000f57600080fd5b6101028061001e6000396000f300606060405263ffffffff7c01000000000000000000000000000000000000000000000000000000006000350416631d3b9edf8114604f57806366098d4f14606d578063f4f3bdc114607957600080fd5b605b6004356024356085565b60405190815260200160405180910390f35b605b60043560243560ad565b605b60043560243560c5565b6000828202831580609f5750828482811515609c57fe5b04145b151560a657fe5b9392505050565b6000828201838110801590609f57508281101560a657fe5b60008282111560d057fe5b509003905600a165627a7a723058201f595834946987c33700e4cd0f3f0cd5bff3c5de32aaedc55cbb05be188812900029",
  "source": "/**\r\n * Safe Math Smart Contract.  \r\n * \r\n * Copyright © 2017 by Hive Project Ltd.\r\n *\r\n * Licensed under the Apache License, Version 2.0 (the \"License\").\r\n * You may not use this file except in compliance with the License.\r\n *\r\n * Unless required by applicable law or agreed to in writing, software\r\n * distributed under the License is distributed on an \"AS IS\" BASIS,\r\n * WITHOUT WARRANTIES OR CONDITIONS OF ANY KIND (express or implied).\r\n */\r\n \r\npragma solidity ^0.4.15;\r\n\r\n/**\r\n * Provides methods to safely add, subtract and multiply uint256 numbers.\r\n */\r\nlibrary SafeMathLib {\r\n    function times(uint a, uint b) constant public returns (uint) {\r\n        uint c = a * b;\r\n        assert(a == 0 || c / a == b);\r\n        return c;\r\n    }\r\n\r\n    function minus(uint a, uint b) constant public returns (uint) {\r\n        assert(b <= a);\r\n        return a - b;\r\n    }\r\n\r\n    function plus(uint a, uint b) constant public returns (uint) {\r\n        uint c = a + b;\r\n        assert(c>=a && c>=b);\r\n        return c;\r\n    }\r\n}\r\n",
  "sourcePath": "/home/stanimir/Projects/hive/PoC/smartContracts/contracts/lib/SafeMathLib.sol",
  "schemaVersion": "1.0.0",
  "updatedAt": "2017-10-26T11:41:48.372Z"
}